:100000000C9472000C9493000C9493000C94930045
:100010000C9493000C9493000C9493000C94930014
:100020000C9493000C9493000C9493000C94930004
:100030000C9493000C9493000C9493000C949300F4
:100040000C9493000C9493000C9493000C949300E4
:100050000C9493000C9493000C9493000C949300D4
:100060000C9493000C9493000C9493000C949300C4
:100070000C9493000C9493000C9493000C949300B4
:100080000C9493000C9493000C9493000C949300A4
:100090000C9493000C9493000C9493000C94930094
:1000A0000C9493000C9493000C94DB000C9493003C
:1000B0000C9493000C9493000C9493000C94930074
:1000C0000C9493000C9493000C9493000C94930064
:1000D0000C9493000C9493000C9493000C94930054
:1000E0000C94930011241FBECFEFD1E2DEBFCDBF31
:1000F00000E00CBF12E0A0E0B2E0E6EEF1E000E0CC
:100100000BBF02C007900D92A030B107D9F712E0E3
:10011000A0E0B2E001C01D92A130B107E1F70E945A
:10012000CC000C94F1000C940000229A229A2A9898
:100130002A98089590E0009729F0019729F42A9AC7
:100140002A9808952A9801C02A9A2A9A08952A9AE4
:100150002A9A089522982A9A22982A9A0895229AE9
:100160001092A000E1EAF0E010821092A500109237
:10017000A40088E09DE39093A9008093A80080816B
:1001800088608083808185608083E2E7F0E0808101
:1001900082608083789408950E9495000E94AA004E
:1001A0000E94AF00FFCF81E080930002089510927B
:1001B00000022A9808951F920F920FB60F921124F1
:1001C0008F939F9380910002882321F085B194E062
:1001D000892785B99F918F910F900FBE0F901F9027
:0601E0001895F894FFCF12
:00000001FF
