:100000000C9472000C948B000C948B000C948B005D
:100010000C948B000C948B000C948B000C948B0034
:100020000C948B000C948B000C948B000C948B0024
:100030000C948B000C948B000C948B000C948B0014
:100040000C948B000C948B000C948B000C948B0004
:100050000C948D000C948B000C948B000C948B00F2
:100060000C948B000C948B000C948B000C948B00E4
:100070000C948B000C948B000C948B000C948B00D4
:100080000C948B000C948B000C948B000C948B00C4
:100090000C948B000C948B000C948B000C948B00B4
:1000A0000C948B000C948B000C948B000C948B00A4
:1000B0000C948B000C948B000C948B000C948B0094
:1000C0000C948B000C948B000C948B000C948B0084
:1000D0000C948B000C948B000C948B000C948B0074
:1000E0000C948B0011241FBECFEFD1E2DEBFCDBF39
:1000F00000E00CBF12E0A0E0B2E0E0E7F1E000E0D9
:100100000BBF02C007900D92A030B107D9F70E9433
:10011000A4000C94B6000C9400001F920F920FB62E
:100120000F9211248F939F9385B1805885B987EFE3
:1001300092EC90938500809384009F918F910F9013
:100140000FBE0F901F901895F894279A87EF92ECA6
:1001500090938500809384001092800085E08093C6
:10016000810081E080936F007894FFCFF894FFCFF7
:00000001FF
