:100000000C9472000C9493000C9493000C94930045
:100010000C9493000C9493000C9493000C94930014
:100020000C9493000C9493000C9493000C94930004
:100030000C9493000C9493000C9493000C949300F4
:100040000C9493000C9493000C9493000C949300E4
:100050000C9493000C9493000C9493000C949300D4
:100060000C9493000C9493000C9493000C949300C4
:100070000C9493000C9493000C9493000C949300B4
:100080000C9493000C9493000C9493000C949300A4
:100090000C9493000C9493000C9493000C94930094
:1000A0000C9493000C9493000C9446010C949300D0
:1000B0000C9493000C9493000C9493000C94930074
:1000C0000C9493000C9493000C9493000C94930064
:1000D0000C9493000C9493000C9493000C94930054
:1000E0000C94930011241FBECFEFD1E2DEBFCDBF31
:1000F00000E00CBF12E0A0E0B2E0ECECF2E000E0C7
:100100000BBF02C007900D92A030B107D9F712E0E3
:10011000A0E0B2E001C01D92A130B107E1F70E945A
:1001200013010C9464010C9400006B9AE1E0F1E07F
:100130008081886080837398E2E0F1E08081877F2E
:100140008083089590E0009739F0019739F4739A0D
:1001500080910201877F06C0739801C0739A8091D5
:1001600002018860809302010895739AE2E0F1E051
:1001700080818860808308953E98469A3F98479A88
:100180002098EBE0F1E0808181608083AAE0B1E01B
:100190008C918D7F8C93808182608083089586B15D
:1001A000829586958695837080958170089586B135
:1001B0008095881F8827881F089580910901809560
:1001C00081700895809109018695809581700895C8
:1001D000239A229A6D9A75981092A000E1EAF0E0B5
:1001E00010821092A5001092A4008CE49DE19093DF
:1001F000A9008093A80080818860808380818560C9
:100200008083E2E7F0E080818260808378940895C3
:1002100081E0809300022A9A0895109200022B98A0
:100220002A98759A08951F930E9495000E94BC0019
:100230000E94E80011E00AC080910002882319F4AE
:10024000109300022A9A81E00E94A20036990FC002
:100250008091090181FDF0CF0AC0809100028823BE
:1002600019F4109300022A9A80E00E94A2003799A4
:1002700004C08091090180FDF0CF739A8091020142
:100280008860809302010E940D01E0CF1F920F92BF
:100290000FB60F9211248F939F93809100028823B1
:1002A00061F085B198E0892785B985B194E0892707
:1002B00085B98EB190E289278EB99F918F910F9069
:0C02C0000FBE0F901F901895F894FFCF10
:00000001FF
